:060000000209B30209BF72
:03000B0002097B6C
:10080000759703E4F593F591F5957594FF7592FF4F
:100810007596FFF517F508C291C290758911D28CB3
:10082000C288D2A9C2A8D2AFC2AFD2901209CAC29E
:100830009030B2FDC200D2A8E4F58DF58BC28FD204
:100840008ED2AFE58DC3941E40F9C28EC2A830008F
:1008500029752100850C22E522752200F521E50E7F
:100860004222E4AE21AF22FC7D0C1208C28E218F01
:10087000227D3A1208D48E218F22200007E4F52130
:10088000F522B291852123852224E526B52408E5A9
:1008900025B52303E4F527E52665247004E52565E1
:1008A0002360020527E527C394035003020828E4C8
:1008B000F527852325852426AF26AE251209290292
:1008C0000828EF8DF0A4A8F0CF8CF0A428CE8DF0EE
:1008D000A42EFE22BC000BBE0029EF8DF084FFADDC
:1008E000F022E4CCF875F008EF2FFFEE33FEEC3386
:1008F000FCEE9DEC984005FCEE9DFE0FD5F0E9E482
:10090000CEFD22EDF8F5F0EE8420D21CFEADF075A0
:10091000F008EF2FFFED33FD4007985006D5F0F2B9
:1009200022C398FD0FD5F0EA22AB07AA067C007D12
:10093000641208D48F297C007D64AF03AE021208D4
:10094000D4AA04AB057C007D0AAF03AE021208D422
:100950008F287C007D0AAF03AE021208D4AF05E5F4
:10096000299009D193F529E52893F528EF93C2AF93
:1009700085290985280BF50DD2AF22C0E0C0D075BE
:100980008CFD758A77E508146011146018240270D4
:100990001D850D8075A0FD05088013850B8075A051
:1009A000FE0508800985098075A0FB750800D0D078
:1009B000D0E032787FE4F6D8FD7581290208008501
:1009C0008D0C858B0ED200C2A832E4FF0FBF64FCF1
:0B09D00022C0F9A4B0999282F8809038
:00000001FF
