:03000000020BEC04
:0C0BEC00787FE4F6D8FD758120020C3300
:100D6400A0BB622A392C24BA2028FF809B420A198E
:060D74000C049A0008DFE8
:080DA200010814C184010B00DB
:100D7A00E4FFC2B3C2B1D2B1C2B130B2FDD2B3AF95
:030D8A0090C2B361
:010D8D002243
:10080000E50B600302088DE50A75F00A120C78FF0B
:100810003395E0FE74642FF582740D3EF583E49306
:10082000120D09D2A7E50A75F00A120C78AFF0EFA5
:100830003395E0FE746F2FF582740D3EF583E493DB
:10084000F580C2A67F01120D0FD2A6E50975F00A48
:10085000120C78FF3395E0FE74642FF582740D3E20
:10086000F583E493F580C2A57F01120D0FD2A5E5B3
:100870000975F00A120C78AFF0EF3395E0FE74645E
:100880002FF582740D3EF583E49302099CE50B6419
:10089000016003020916300320120CEFD2A7E50A0B
:1008A00075F00A120C78AFF0EF3395E0FE746F2FFD
:1008B000F582740D3EF583800B900D6E120D06D2FD
:1008C000A7900D79E493F4F580C2A67F01120D0F75
:1008D000D2A6E50975F00A120C78FF3395E0FE7494
:1008E000642FF582740D3EF583E493F4F580C2A580
:1008F0007F01120D0FD2A5E50975F00A120C78AF31
:10090000F0EF3395E0FE74642FF582740D3EF583AD
:10091000E493F402099C120CEFD2A7E50A75F00AE1
:10092000120C78AFF0EF3395E0FE746F2FF5827400
:100930000D3EF583E493F4F580C2A67F01120D0FFE
:10094000D2A6300340E50975F00A120C78FF339502
:10095000E0FE74642FF582740D3EF583E493F4F5A4
:1009600080C2A57F01120D0FD2A5E50975F00A120C
:100970000C78AFF0EF3395E0FE74642FF582740DC0
:100980003EF5838014900D6EE493F4F580C2A57F4C
:1009900001120D0FD2A5900D6EE493F4F580C2A460
:0809A0007F01120D0FD2A42209
:1009A80020A31C7F0A120D0F20A30AC2B7B2003081
:1009B800000375081420A30512080080F8D2B72098
:1009C800B507300404C2B7C204A2B5300401B3505D
:1009D80004D2B7D20420A2207F0A120D0F20A20E43
:1009E800C2B7050BE50BB40303E4F50BC20220A262
:1009F8000512080080F8D2B7E50B6401704A20A1FF
:100A0800227F0A120D0F20A110C2B7050AC3E50AFA
:100A1800648094BC4003E4F50A20A1051208008014
:100A2800F8D2B720A0227F0A120D0F20A010C2B75B
:100A3800150AD3E50A648094804003750A3B20A018
:100A48000512080080F8D2B7E50B6402704D20A1AA
:100A5800227F0A120D0F20A110C2B70509C3E509AC
:100A6800648094BC4003E4F50920A10512080080C5
:100A7800F8D2B720A0227F0A120D0F20A010C2B70B
:100A88001509C3E50964809480500375093B20A0CB
:100A98000512080080F8D2B730A0FD20006B3001A5
:100AA80064E4FF74012FF8E2FE74002FF8EEF20FF1
:100AB800BF31F0120D7A7831EFF2E4FF74002FF8AD
:100AC800E2250FF50FE4350EF50E0FBF32EEAE0E30
:100AD800AF0F7C007D32120C9AD3EF941EEE940077
:100AE80050028021C3EF9496EE94004004750829C3
:100AF80022EF24E2FFEE34FFFE7C007D03120C9A05
:100B0800EF04F5082275080122E50B703420A117BF
:100B18007F0A120D0F20A10F0508E508C39429408C
:100B28000375082912080020A0177F0A120D0F204C
:100B3800A00F1508E508D3940140037508011208B1
:010B480000AC
:010B49002289
:100D4A00758911758D3C758BB0758CFF758AE7D2E4
:0A0D5A00A9D2ABD2AFD28CC28E2218
:100D8E00120D4AD200C2B67FF4120D0F1209A8122C
:040D9E00080080F8D1
:100CEF00E50A75F00A120C78FF3395E0FE74642F55
:100CFF00F582740D3EF583E493F4F580C2A77F016E
:0D0D0F00EFD3940040077E7DDEFE1F80F3D1
:010D1C0022B4
:03000B00020D1DC6
:040D1D00C0E0C0D0A2
:100D2100758CFF758AE70510E510D395084004D24C
:100D3100B48009E510D395085002C2B4E510B42877
:040D41000375100026
:050D4500D0D0D0E03227
:03001B00020B4A8B
:0F0B4A00C0E0C0D075D000C004C005C006C00711
:100B5900758D3C758BB00511E511640A6005E511C9
:100B6900B41406E50B6002B203E51164147067F56D
:100B79001120B602050DE50DD3941E500A30B607B3
:100B8900750D00D201800FE50DD3941E400820B6E3
:100B990005C201750D00E50B703C200239AF09EF64
:100BA9003395E0FEAD0AED3395E0FCED2FFFEC3E09
:100BB9004F60231509C3E5096480948050057509C0
:100BC9003B150AD3E50A64809480500AE50970064A
:060BD900F50AD202C2B7CA
:0D0BDF00D007D006D005D004D0D0D0E03231
:100BF800020D8EE493A3F8E493A34003F68001F278
:100C080008DFF48029E493A3F85407240CC8C333FD
:100C1800C4540F4420C8834004F456800146F6DFCC
:100C2800E4800B0102040810204080900DA2E47EAD
:100C3800019360BCA3FF543F30E509541FFEE493C1
:100C4800A360010ECF54C025E060A840B8E493A388
:100C5800FAE493A3F8E493A3C8C582C8CAC583CAB3
:100C6800F0A3C8C582C8CAC583CADFE9DEE780BE6B
:010DAA000048
:100C7800C2D530F707B2D563F0FF05F030E70CB204
:100C8800D5F4048463F0FF05F080018430D502F4C4
:020C9800042234
:100C9A00BC000BBE0029EF8DF084FFADF022E4CC3E
:100CAA00F875F008EF2FFFEE33FEEC33FCEE9DEC07
:100CBA00984005FCEE9DFE0FD5F0E9E4CEFD22ED4D
:100CCA00F8F5F0EE8420D21CFEADF075F008EF2F97
:100CDA00FFED33FD4007985006D5F0F222C398FD88
:050CEA000FD5F0EA2225
:00000001FF
